{
  "contractName": "TradeBridgeCoinSale",
  "abi": [
    {
      "constant": true,
      "inputs": [],
      "name": "weiRaised",
      "outputs": [
        {
          "name": "",
          "type": "uint256"
        }
      ],
      "payable": false,
      "stateMutability": "view",
      "type": "function"
    },
    {
      "constant": true,
      "inputs": [],
      "name": "wallet",
      "outputs": [
        {
          "name": "",
          "type": "address"
        }
      ],
      "payable": false,
      "stateMutability": "view",
      "type": "function"
    },
    {
      "constant": true,
      "inputs": [],
      "name": "paused",
      "outputs": [
        {
          "name": "",
          "type": "bool"
        }
      ],
      "payable": false,
      "stateMutability": "view",
      "type": "function"
    },
    {
      "constant": false,
      "inputs": [
        {
          "name": "timestamp",
          "type": "uint256"
        },
        {
          "name": "message",
          "type": "string"
        }
      ],
      "name": "unpause",
      "outputs": [],
      "payable": false,
      "stateMutability": "nonpayable",
      "type": "function"
    },
    {
      "constant": false,
      "inputs": [
        {
          "name": "timestamp",
          "type": "uint256"
        },
        {
          "name": "message",
          "type": "string"
        }
      ],
      "name": "pause",
      "outputs": [],
      "payable": false,
      "stateMutability": "nonpayable",
      "type": "function"
    },
    {
      "constant": false,
      "inputs": [],
      "name": "renounceOwnership",
      "outputs": [],
      "payable": false,
      "stateMutability": "nonpayable",
      "type": "function"
    },
    {
      "constant": true,
      "inputs": [],
      "name": "owner",
      "outputs": [
        {
          "name": "",
          "type": "address"
        }
      ],
      "payable": false,
      "stateMutability": "view",
      "type": "function"
    },
    {
      "constant": false,
      "inputs": [
        {
          "name": "_newOwner",
          "type": "address"
        }
      ],
      "name": "transferOwnership",
      "outputs": [],
      "payable": false,
      "stateMutability": "nonpayable",
      "type": "function"
    },
    {
      "constant": true,
      "inputs": [],
      "name": "token",
      "outputs": [
        {
          "name": "",
          "type": "address"
        }
      ],
      "payable": false,
      "stateMutability": "view",
      "type": "function"
    },
    {
      "inputs": [
        {
          "name": "_wallet",
          "type": "address"
        },
        {
          "name": "_token",
          "type": "address"
        }
      ],
      "payable": false,
      "stateMutability": "nonpayable",
      "type": "constructor"
    },
    {
      "payable": true,
      "stateMutability": "payable",
      "type": "fallback"
    },
    {
      "anonymous": false,
      "inputs": [
        {
          "indexed": true,
          "name": "to",
          "type": "address"
        },
        {
          "indexed": false,
          "name": "balance",
          "type": "uint256"
        },
        {
          "indexed": false,
          "name": "value",
          "type": "uint256"
        }
      ],
      "name": "Withdrawal",
      "type": "event"
    },
    {
      "anonymous": false,
      "inputs": [
        {
          "indexed": true,
          "name": "to",
          "type": "address"
        },
        {
          "indexed": false,
          "name": "reqTxHash",
          "type": "string"
        },
        {
          "indexed": false,
          "name": "value",
          "type": "uint256"
        }
      ],
      "name": "Withdrawn",
      "type": "event"
    },
    {
      "anonymous": false,
      "inputs": [
        {
          "indexed": true,
          "name": "from",
          "type": "address"
        },
        {
          "indexed": true,
          "name": "balance",
          "type": "uint256"
        },
        {
          "indexed": false,
          "name": "value",
          "type": "uint256"
        },
        {
          "indexed": false,
          "name": "agent",
          "type": "bytes"
        }
      ],
      "name": "Deposit",
      "type": "event"
    },
    {
      "anonymous": false,
      "inputs": [
        {
          "indexed": true,
          "name": "from",
          "type": "address"
        },
        {
          "indexed": false,
          "name": "reqTxHash",
          "type": "string"
        },
        {
          "indexed": false,
          "name": "value",
          "type": "uint256"
        }
      ],
      "name": "Deposited",
      "type": "event"
    },
    {
      "anonymous": false,
      "inputs": [
        {
          "indexed": true,
          "name": "from",
          "type": "address"
        },
        {
          "indexed": false,
          "name": "value",
          "type": "uint256"
        },
        {
          "indexed": false,
          "name": "category",
          "type": "uint8"
        },
        {
          "indexed": false,
          "name": "data",
          "type": "string"
        }
      ],
      "name": "ActionMessage",
      "type": "event"
    },
    {
      "anonymous": false,
      "inputs": [
        {
          "indexed": false,
          "name": "actionMsg",
          "type": "string"
        },
        {
          "indexed": true,
          "name": "beneficiary",
          "type": "address"
        },
        {
          "indexed": false,
          "name": "data",
          "type": "string"
        }
      ],
      "name": "Action",
      "type": "event"
    },
    {
      "anonymous": false,
      "inputs": [
        {
          "indexed": false,
          "name": "message",
          "type": "string"
        },
        {
          "indexed": false,
          "name": "publishedAt",
          "type": "uint256"
        },
        {
          "indexed": false,
          "name": "validThru",
          "type": "uint256"
        }
      ],
      "name": "Notification",
      "type": "event"
    },
    {
      "anonymous": false,
      "inputs": [
        {
          "indexed": false,
          "name": "voter",
          "type": "address"
        },
        {
          "indexed": false,
          "name": "category",
          "type": "uint8"
        },
        {
          "indexed": false,
          "name": "voteMsg",
          "type": "string"
        },
        {
          "indexed": false,
          "name": "tokenToVote",
          "type": "uint256"
        },
        {
          "indexed": false,
          "name": "publishedAt",
          "type": "uint256"
        }
      ],
      "name": "Vote",
      "type": "event"
    },
    {
      "anonymous": false,
      "inputs": [
        {
          "indexed": true,
          "name": "by",
          "type": "address"
        },
        {
          "indexed": false,
          "name": "direction",
          "type": "int8"
        },
        {
          "indexed": false,
          "name": "value",
          "type": "uint256"
        },
        {
          "indexed": false,
          "name": "tTag",
          "type": "string"
        }
      ],
      "name": "PriceQuery",
      "type": "event"
    },
    {
      "anonymous": false,
      "inputs": [
        {
          "indexed": true,
          "name": "by",
          "type": "address"
        },
        {
          "indexed": false,
          "name": "query",
          "type": "string"
        },
        {
          "indexed": false,
          "name": "direction",
          "type": "int8"
        },
        {
          "indexed": false,
          "name": "value",
          "type": "uint256"
        },
        {
          "indexed": false,
          "name": "price",
          "type": "uint256"
        }
      ],
      "name": "PriceResp",
      "type": "event"
    },
    {
      "anonymous": false,
      "inputs": [
        {
          "indexed": false,
          "name": "origin",
          "type": "string"
        },
        {
          "indexed": true,
          "name": "from",
          "type": "address"
        },
        {
          "indexed": false,
          "name": "msg",
          "type": "string"
        }
      ],
      "name": "ErrorMsg",
      "type": "event"
    },
    {
      "anonymous": false,
      "inputs": [
        {
          "indexed": true,
          "name": "from",
          "type": "address"
        },
        {
          "indexed": true,
          "name": "to",
          "type": "address"
        },
        {
          "indexed": false,
          "name": "tokenAmount",
          "type": "uint256"
        }
      ],
      "name": "TokenTransferred",
      "type": "event"
    },
    {
      "anonymous": false,
      "inputs": [
        {
          "indexed": true,
          "name": "accToIgnore",
          "type": "address"
        },
        {
          "indexed": false,
          "name": "txHashToIgnore",
          "type": "string"
        }
      ],
      "name": "IgnoreEvent",
      "type": "event"
    },
    {
      "anonymous": false,
      "inputs": [
        {
          "indexed": false,
          "name": "timestamp",
          "type": "uint256"
        },
        {
          "indexed": false,
          "name": "message",
          "type": "string"
        }
      ],
      "name": "Pause",
      "type": "event"
    },
    {
      "anonymous": false,
      "inputs": [
        {
          "indexed": false,
          "name": "timestamp",
          "type": "uint256"
        },
        {
          "indexed": false,
          "name": "message",
          "type": "string"
        }
      ],
      "name": "Unpause",
      "type": "event"
    },
    {
      "anonymous": false,
      "inputs": [
        {
          "indexed": true,
          "name": "previousOwner",
          "type": "address"
        }
      ],
      "name": "OwnershipRenounced",
      "type": "event"
    },
    {
      "anonymous": false,
      "inputs": [
        {
          "indexed": true,
          "name": "previousOwner",
          "type": "address"
        },
        {
          "indexed": true,
          "name": "newOwner",
          "type": "address"
        }
      ],
      "name": "OwnershipTransferred",
      "type": "event"
    },
    {
      "constant": false,
      "inputs": [
        {
          "name": "actor",
          "type": "address"
        },
        {
          "name": "tokenValue",
          "type": "uint256"
        },
        {
          "name": "category",
          "type": "uint8"
        },
        {
          "name": "data",
          "type": "string"
        }
      ],
      "name": "actionMessage",
      "outputs": [],
      "payable": false,
      "stateMutability": "nonpayable",
      "type": "function"
    },
    {
      "constant": false,
      "inputs": [
        {
          "name": "actionMsg",
          "type": "string"
        },
        {
          "name": "beneficiary",
          "type": "address"
        },
        {
          "name": "data",
          "type": "string"
        }
      ],
      "name": "actionConfirm",
      "outputs": [
        {
          "name": "",
          "type": "bool"
        }
      ],
      "payable": false,
      "stateMutability": "nonpayable",
      "type": "function"
    },
    {
      "constant": false,
      "inputs": [
        {
          "name": "beneficiary",
          "type": "address"
        },
        {
          "name": "value",
          "type": "uint256"
        }
      ],
      "name": "withdraw",
      "outputs": [],
      "payable": false,
      "stateMutability": "nonpayable",
      "type": "function"
    },
    {
      "constant": false,
      "inputs": [
        {
          "name": "actionMsg",
          "type": "string"
        },
        {
          "name": "beneficiary",
          "type": "address"
        },
        {
          "name": "value",
          "type": "uint256"
        },
        {
          "name": "data",
          "type": "string"
        }
      ],
      "name": "sendToken",
      "outputs": [
        {
          "name": "",
          "type": "bool"
        }
      ],
      "payable": false,
      "stateMutability": "nonpayable",
      "type": "function"
    },
    {
      "constant": false,
      "inputs": [
        {
          "name": "actionMsg",
          "type": "string"
        },
        {
          "name": "from",
          "type": "address"
        },
        {
          "name": "value",
          "type": "uint256"
        },
        {
          "name": "data",
          "type": "string"
        }
      ],
      "name": "stackToken",
      "outputs": [
        {
          "name": "",
          "type": "bool"
        }
      ],
      "payable": false,
      "stateMutability": "nonpayable",
      "type": "function"
    },
    {
      "constant": false,
      "inputs": [
        {
          "name": "to",
          "type": "address"
        },
        {
          "name": "reqTxHash",
          "type": "string"
        },
        {
          "name": "value",
          "type": "uint256"
        }
      ],
      "name": "logWithdrawn",
      "outputs": [
        {
          "name": "",
          "type": "bool"
        }
      ],
      "payable": false,
      "stateMutability": "nonpayable",
      "type": "function"
    },
    {
      "constant": false,
      "inputs": [
        {
          "name": "to",
          "type": "address"
        },
        {
          "name": "reqTxHash",
          "type": "string"
        },
        {
          "name": "value",
          "type": "uint256"
        }
      ],
      "name": "logDeposited",
      "outputs": [
        {
          "name": "",
          "type": "bool"
        }
      ],
      "payable": false,
      "stateMutability": "nonpayable",
      "type": "function"
    },
    {
      "constant": false,
      "inputs": [
        {
          "name": "beneficiary",
          "type": "address"
        },
        {
          "name": "agent",
          "type": "bytes"
        }
      ],
      "name": "buyToken",
      "outputs": [],
      "payable": true,
      "stateMutability": "payable",
      "type": "function"
    },
    {
      "constant": false,
      "inputs": [
        {
          "name": "message",
          "type": "string"
        },
        {
          "name": "validThru",
          "type": "uint256"
        }
      ],
      "name": "broadcastNotification",
      "outputs": [],
      "payable": false,
      "stateMutability": "nonpayable",
      "type": "function"
    },
    {
      "constant": false,
      "inputs": [
        {
          "name": "by",
          "type": "address"
        },
        {
          "name": "direction",
          "type": "int8"
        },
        {
          "name": "value",
          "type": "uint256"
        },
        {
          "name": "tag",
          "type": "string"
        }
      ],
      "name": "priceQuery",
      "outputs": [
        {
          "name": "",
          "type": "bool"
        }
      ],
      "payable": false,
      "stateMutability": "nonpayable",
      "type": "function"
    },
    {
      "constant": false,
      "inputs": [
        {
          "name": "by",
          "type": "address"
        },
        {
          "name": "query",
          "type": "string"
        },
        {
          "name": "direction",
          "type": "int8"
        },
        {
          "name": "value",
          "type": "uint256"
        },
        {
          "name": "price",
          "type": "uint256"
        }
      ],
      "name": "priceResp",
      "outputs": [
        {
          "name": "",
          "type": "bool"
        }
      ],
      "payable": false,
      "stateMutability": "nonpayable",
      "type": "function"
    },
    {
      "constant": false,
      "inputs": [
        {
          "name": "beneficiary",
          "type": "address"
        },
        {
          "name": "tokenAmount",
          "type": "uint256"
        }
      ],
      "name": "transferMintToken",
      "outputs": [
        {
          "name": "",
          "type": "bool"
        }
      ],
      "payable": false,
      "stateMutability": "nonpayable",
      "type": "function"
    },
    {
      "constant": false,
      "inputs": [
        {
          "name": "beneficiary",
          "type": "address"
        },
        {
          "name": "tokenAmount",
          "type": "uint256"
        },
        {
          "name": "reqTxHash",
          "type": "string"
        }
      ],
      "name": "depositTokens",
      "outputs": [
        {
          "name": "",
          "type": "bool"
        }
      ],
      "payable": false,
      "stateMutability": "nonpayable",
      "type": "function"
    },
    {
      "constant": false,
      "inputs": [
        {
          "name": "beneficiary",
          "type": "address"
        },
        {
          "name": "tokenAmount",
          "type": "uint256"
        }
      ],
      "name": "transfer",
      "outputs": [
        {
          "name": "",
          "type": "bool"
        }
      ],
      "payable": false,
      "stateMutability": "nonpayable",
      "type": "function"
    },
    {
      "constant": false,
      "inputs": [
        {
          "name": "accToIgnore",
          "type": "address"
        },
        {
          "name": "txHashToIgnore",
          "type": "string"
        }
      ],
      "name": "logIgnoreEvent",
      "outputs": [
        {
          "name": "",
          "type": "bool"
        }
      ],
      "payable": false,
      "stateMutability": "nonpayable",
      "type": "function"
    },
    {
      "constant": true,
      "inputs": [
        {
          "name": "_account",
          "type": "address"
        }
      ],
      "name": "getTokenBalance",
      "outputs": [
        {
          "name": "",
          "type": "uint256"
        }
      ],
      "payable": false,
      "stateMutability": "view",
      "type": "function"
    },
    {
      "constant": true,
      "inputs": [
        {
          "name": "_key",
          "type": "string"
        }
      ],
      "name": "getArguments",
      "outputs": [
        {
          "name": "",
          "type": "uint256"
        }
      ],
      "payable": false,
      "stateMutability": "view",
      "type": "function"
    },
    {
      "constant": false,
      "inputs": [
        {
          "name": "_key",
          "type": "string"
        },
        {
          "name": "_value",
          "type": "uint256"
        }
      ],
      "name": "setArguments",
      "outputs": [
        {
          "name": "",
          "type": "bool"
        }
      ],
      "payable": false,
      "stateMutability": "nonpayable",
      "type": "function"
    },
    {
      "constant": false,
      "inputs": [
        {
          "name": "origin",
          "type": "string"
        },
        {
          "name": "from",
          "type": "address"
        },
        {
          "name": "message",
          "type": "string"
        }
      ],
      "name": "setErrorMsg",
      "outputs": [
        {
          "name": "",
          "type": "bool"
        }
      ],
      "payable": false,
      "stateMutability": "nonpayable",
      "type": "function"
    },
    {
      "constant": false,
      "inputs": [
        {
          "name": "toPause",
          "type": "bool"
        },
        {
          "name": "timestamp",
          "type": "uint256"
        },
        {
          "name": "message",
          "type": "string"
        }
      ],
      "name": "setPause",
      "outputs": [],
      "payable": false,
      "stateMutability": "nonpayable",
      "type": "function"
    }
  ],
  "bytecode": "0x608060405260008060146101000a81548160ff02191690831515021790555034801561002a57600080fd5b5060405160408062003f928339810180604052810190808051906020019092919080519060200190929190505050336000806101000a81548173ffffffffffffffffffffffffffffffffffffffff021916908373ffffffffffffffffffffffffffffffffffffffff160217905550600073ffffffffffffffffffffffffffffffffffffffff168273ffffffffffffffffffffffffffffffffffffffff16141515156100d457600080fd5b600073ffffffffffffffffffffffffffffffffffffffff168173ffffffffffffffffffffffffffffffffffffffff161415151561011057600080fd5b81600360006101000a81548173ffffffffffffffffffffffffffffffffffffffff021916908373ffffffffffffffffffffffffffffffffffffffff16021790555080600260006101000a81548173ffffffffffffffffffffffffffffffffffffffff021916908373ffffffffffffffffffffffffffffffffffffffff1602179055505050613dee80620001a46000396000f300608060405260043610610175576000357c0100000000000000000000000000000000000000000000000000000000900463ffffffff16806303c456aa146101b4578063118dcb3314610233578063241620a61461031a578063283e95c51461037f5780633aecd0e3146103fc5780634042b66f1461045357806342fe539e1461047e578063484c2d971461051e578063521eb273146105c95780635c975abb146106205780636030ffed1461064f578063639b9320146106f05780636ae74873146107635780636b2ca16314610854578063715018a6146108c757806374aea79e146108de5780637eaffc3d146109cf5780638da5cb5b14610ab6578063914c14f614610b0d578063a0d8d9c214610b80578063a18f6ea514610c0b578063a44422fd14610ccd578063a9059cbb14610d49578063b631e41f14610dae578063bdc18e5a14610e59578063e5fe029014610f11578063f2fde38b14610fbc578063f3fef3a314610fff578063fc0c546a1461104c575b6101b2336000368080601f0160208091040260200160405190810160405280939291908181526020018383808284378201915050505050506110a3565b005b3480156101c057600080fd5b5061023160048036038101908080351515906020019092919080359060200190929190803590602001908201803590602001908080601f0160208091040260200160405190810160405280939291908181526020018383808284378201915050505050509192919290505050611250565b005b34801561023f57600080fd5b50610300600480360381019080803590602001908201803590602001908080601f0160208091040260200160405190810160405280939291908181526020018383808284378201915050505050509192919290803573ffffffffffffffffffffffffffffffffffffffff169060200190929190803590602001908201803590602001908080601f01602080910402602001604051908101604052809392919081815260200183838082843782019150505050505091929192905050506112d0565b604051808215151515815260200191505060405180910390f35b34801561032657600080fd5b50610365600480360381019080803573ffffffffffffffffffffffffffffffffffffffff16906020019092919080359060200190929190505050611469565b604051808215151515815260200191505060405180910390f35b34801561038b57600080fd5b506103e6600480360381019080803590602001908201803590602001908080601f01602080910402602001604051908101604052809392919081815260200183838082843782019150505050505091929192905050506115dd565b6040518082815260200191505060405180910390f35b34801561040857600080fd5b5061043d600480360381019080803573ffffffffffffffffffffffffffffffffffffffff169060200190929190505050611652565b6040518082815260200191505060405180910390f35b34801561045f57600080fd5b506104686117e4565b6040518082815260200191505060405180910390f35b34801561048a57600080fd5b5061051c600480360381019080803573ffffffffffffffffffffffffffffffffffffffff16906020019092919080359060200190929190803560ff169060200190929190803590602001908201803590602001908080601f01602080910402602001604051908101604052809392919081815260200183838082843782019150505050505091929192905050506117ea565b005b34801561052a57600080fd5b506105af600480360381019080803573ffffffffffffffffffffffffffffffffffffffff16906020019092919080359060200190929190803590602001908201803590602001908080601f0160208091040260200160405190810160405280939291908181526020018383808284378201915050505050509192919290505050611a36565b604051808215151515815260200191505060405180910390f35b3480156105d557600080fd5b506105de611bd2565b604051808273ffffffffffffffffffffffffffffffffffffffff1673ffffffffffffffffffffffffffffffffffffffff16815260200191505060405180910390f35b34801561062c57600080fd5b50610635611bf8565b604051808215151515815260200191505060405180910390f35b34801561065b57600080fd5b506106d6600480360381019080803573ffffffffffffffffffffffffffffffffffffffff169060200190929190803590602001908201803590602001908080601f0160208091040260200160405190810160405280939291908181526020018383808284378201915050505050509192919290505050611c0b565b604051808215151515815260200191505060405180910390f35b3480156106fc57600080fd5b5061076160048036038101908080359060200190929190803590602001908201803590602001908080601f0160208091040260200160405190810160405280939291908181526020018383808284378201915050505050509192919290505050611d71565b005b34801561076f57600080fd5b5061083a600480360381019080803590602001908201803590602001908080601f0160208091040260200160405190810160405280939291908181526020018383808284378201915050505050509192919290803573ffffffffffffffffffffffffffffffffffffffff16906020019092919080359060200190929190803590602001908201803590602001908080601f0160208091040260200160405190810160405280939291908181526020018383808284378201915050505050509192919290505050611ea9565b604051808215151515815260200191505060405180910390f35b34801561086057600080fd5b506108c560048036038101908080359060200190929190803590602001908201803590602001908080601f01602080910402602001604051908101604052809392919081815260200183838082843782019150505050505091929192905050506122d9565b005b3480156108d357600080fd5b506108dc612413565b005b3480156108ea57600080fd5b506109b5600480360381019080803590602001908201803590602001908080601f0160208091040260200160405190810160405280939291908181526020018383808284378201915050505050509192919290803573ffffffffffffffffffffffffffffffffffffffff16906020019092919080359060200190929190803590602001908201803590602001908080601f0160208091040260200160405190810160405280939291908181526020018383808284378201915050505050509192919290505050612515565b604051808215151515815260200191505060405180910390f35b3480156109db57600080fd5b50610a9c600480360381019080803590602001908201803590602001908080601f0160208091040260200160405190810160405280939291908181526020018383808284378201915050505050509192919290803573ffffffffffffffffffffffffffffffffffffffff169060200190929190803590602001908201803590602001908080601f0160208091040260200160405190810160405280939291908181526020018383808284378201915050505050509192919290505050612a04565b604051808215151515815260200191505060405180910390f35b348015610ac257600080fd5b50610acb612b8c565b604051808273ffffffffffffffffffffffffffffffffffffffff1673ffffffffffffffffffffffffffffffffffffffff16815260200191505060405180910390f35b348015610b1957600080fd5b50610b7e600480360381019080803590602001908201803590602001908080601f016020809104026020016040519081016040528093929190818152602001838380828437820191505050505050919291929080359060200190929190505050612bb1565b005b348015610b8c57600080fd5b50610bf1600480360381019080803590602001908201803590602001908080601f016020809104026020016040519081016040528093929190818152602001838380828437820191505050505050919291929080359060200190929190505050612ce1565b604051808215151515815260200191505060405180910390f35b348015610c1757600080fd5b50610cb3600480360381019080803573ffffffffffffffffffffffffffffffffffffffff169060200190929190803590602001908201803590602001908080601f0160208091040260200160405190810160405280939291908181526020018383808284378201915050505050509192919290803560000b90602001909291908035906020019092919080359060200190929190505050612dc8565b604051808215151515815260200191505060405180910390f35b610d47600480360381019080803573ffffffffffffffffffffffffffffffffffffffff169060200190929190803590602001908201803590602001908080601f01602080910402602001604051908101604052809392919081815260200183838082843782019150505050505091929192905050506110a3565b005b348015610d5557600080fd5b50610d94600480360381019080803573ffffffffffffffffffffffffffffffffffffffff16906020019092919080359060200190929190505050612f03565b604051808215151515815260200191505060405180910390f35b348015610dba57600080fd5b50610e3f600480360381019080803573ffffffffffffffffffffffffffffffffffffffff169060200190929190803590602001908201803590602001908080601f01602080910402602001604051908101604052809392919081815260200183838082843782019150505050505091929192908035906020019092919050505061316b565b604051808215151515815260200191505060405180910390f35b348015610e6557600080fd5b50610ef7600480360381019080803573ffffffffffffffffffffffffffffffffffffffff169060200190929190803560000b906020019092919080359060200190929190803590602001908201803590602001908080601f01602080910402602001604051908101604052809392919081815260200183838082843782019150505050505091929192905050506132ad565b604051808215151515815260200191505060405180910390f35b348015610f1d57600080fd5b50610fa2600480360381019080803573ffffffffffffffffffffffffffffffffffffffff169060200190929190803590602001908201803590602001908080601f016020809104026020016040519081016040528093929190818152602001838380828437820191505050505050919291929080359060200190929190505050613600565b604051808215151515815260200191505060405180910390f35b348015610fc857600080fd5b50610ffd600480360381019080803573ffffffffffffffffffffffffffffffffffffffff169060200190929190505050613742565b005b34801561100b57600080fd5b5061104a600480360381019080803573ffffffffffffffffffffffffffffffffffffffff169060200190929190803590602001909291905050506137a9565b005b34801561105857600080fd5b50611061613b12565b604051808273ffffffffffffffffffffffffffffffffffffffff1673ffffffffffffffffffffffffffffffffffffffff16815260200191505060405180910390f35b600060149054906101000a900460ff161515156110bf57600080fd5b600073ffffffffffffffffffffffffffffffffffffffff168273ffffffffffffffffffffffffffffffffffffffff16141515156110fb57600080fd5b60003411151561110a57600080fd5b61111f34600454613b3890919063ffffffff16565b600481905550600360009054906101000a900473ffffffffffffffffffffffffffffffffffffffff1673ffffffffffffffffffffffffffffffffffffffff166108fc349081150290604051600060405180830381858888f1935050505015801561118d573d6000803e3d6000fd5b506004543373ffffffffffffffffffffffffffffffffffffffff167f07c6d86eb9c47d0224ebbb590d5fbb1d9d0d7aca54f94611e5ed37a2c6ee20a734846040518083815260200180602001828103825283818151815260200191508051906020019080838360005b838110156112115780820151818401526020810190506111f6565b50505050905090810190601f16801561123e5780820380516001836020036101000a031916815260200191505b50935050505060405180910390a35050565b6000809054906101000a900473ffffffffffffffffffffffffffffffffffffffff1673ffffffffffffffffffffffffffffffffffffffff163373ffffffffffffffffffffffffffffffffffffffff161415156112ab57600080fd5b82156112c0576112bb82826122d9565b6112cb565b6112ca8282611d71565b5b505050565b60008060009054906101000a900473ffffffffffffffffffffffffffffffffffffffff1673ffffffffffffffffffffffffffffffffffffffff163373ffffffffffffffffffffffffffffffffffffffff1614151561132d57600080fd5b600082511415151561133e57600080fd5b8273ffffffffffffffffffffffffffffffffffffffff167f6e64c7729ebe5e3bdc5e99b66c1f311bb4c0663118eb1353dbb9bf4de70773258584604051808060200180602001838103835285818151815260200191508051906020019080838360005b838110156113bc5780820151818401526020810190506113a1565b50505050905090810190601f1680156113e95780820380516001836020036101000a031916815260200191505b50838103825284818151815260200191508051906020019080838360005b83811015611422578082015181840152602081019050611407565b50505050905090810190601f16801561144f5780820380516001836020036101000a031916815260200191505b5094505050505060405180910390a2600190509392505050565b60008060009054906101000a900473ffffffffffffffffffffffffffffffffffffffff1673ffffffffffffffffffffffffffffffffffffffff163373ffffffffffffffffffffffffffffffffffffffff161415156114c657600080fd5b6000821115156114d557600080fd5b600260009054906101000a900473ffffffffffffffffffffffffffffffffffffffff1673ffffffffffffffffffffffffffffffffffffffff166340c10f1984846040518363ffffffff167c0100000000000000000000000000000000000000000000000000000000028152600401808373ffffffffffffffffffffffffffffffffffffffff1673ffffffffffffffffffffffffffffffffffffffff16815260200182815260200192505050602060405180830381600087803b15801561159a57600080fd5b505af11580156115ae573d6000803e3d6000fd5b505050506040513d60208110156115c457600080fd5b8101908080519060200190929190505050905092915050565b60006001826040518082805190602001908083835b60208310151561161757805182526020820191506020810190506020830392506115f2565b6001836020036101000a0380198251168184511680821785525050505050509050019150509081526020016040518091039020549050919050565b60008173ffffffffffffffffffffffffffffffffffffffff163373ffffffffffffffffffffffffffffffffffffffff1614806116da57506000809054906101000a900473ffffffffffffffffffffffffffffffffffffffff1673ffffffffffffffffffffffffffffffffffffffff163373ffffffffffffffffffffffffffffffffffffffff16145b15156116e557600080fd5b600260009054906101000a900473ffffffffffffffffffffffffffffffffffffffff1673ffffffffffffffffffffffffffffffffffffffff166370a08231836040518263ffffffff167c0100000000000000000000000000000000000000000000000000000000028152600401808273ffffffffffffffffffffffffffffffffffffffff1673ffffffffffffffffffffffffffffffffffffffff168152602001915050602060405180830381600087803b1580156117a257600080fd5b505af11580156117b6573d6000803e3d6000fd5b505050506040513d60208110156117cc57600080fd5b81019080805190602001909291905050509050919050565b60045481565b600060149054906101000a900460ff1615151561180657600080fd5b3373ffffffffffffffffffffffffffffffffffffffff168473ffffffffffffffffffffffffffffffffffffffff1614151561184057600080fd5b600081511415151561185157600080fd5b6000831015151561186157600080fd5b82600260009054906101000a900473ffffffffffffffffffffffffffffffffffffffff1673ffffffffffffffffffffffffffffffffffffffff166370a08231866040518263ffffffff167c0100000000000000000000000000000000000000000000000000000000028152600401808273ffffffffffffffffffffffffffffffffffffffff1673ffffffffffffffffffffffffffffffffffffffff168152602001915050602060405180830381600087803b15801561191f57600080fd5b505af1158015611933573d6000803e3d6000fd5b505050506040513d602081101561194957600080fd5b81019080805190602001909291905050501015151561196757600080fd5b8373ffffffffffffffffffffffffffffffffffffffff167fe61fb237bf80f9e05bb64491f498f8247946d1d118d37e49167971f2e9aa17cc848484604051808481526020018360ff1660ff16815260200180602001828103825283818151815260200191508051906020019080838360005b838110156119f45780820151818401526020810190506119d9565b50505050905090810190601f168015611a215780820380516001836020036101000a031916815260200191505b5094505050505060405180910390a250505050565b6000806000809054906101000a900473ffffffffffffffffffffffffffffffffffffffff1673ffffffffffffffffffffffffffffffffffffffff163373ffffffffffffffffffffffffffffffffffffffff16141515611a9457600080fd5b600073ffffffffffffffffffffffffffffffffffffffff168573ffffffffffffffffffffffffffffffffffffffff1614151515611ad057600080fd5b600084111515611adf57600080fd5b60008351111515611aef57600080fd5b611af98585611469565b90508015611bc5578473ffffffffffffffffffffffffffffffffffffffff167ffd4bdef056842e4615d2a093647094c0b9bf67c63662d614d63fefd617e0add284866040518080602001838152602001828103825284818151815260200191508051906020019080838360005b83811015611b81578082015181840152602081019050611b66565b50505050905090810190601f168015611bae5780820380516001836020036101000a031916815260200191505b50935050505060405180910390a260019150611bca565b600091505b509392505050565b600360009054906101000a900473ffffffffffffffffffffffffffffffffffffffff1681565b600060149054906101000a900460ff1681565b60008060009054906101000a900473ffffffffffffffffffffffffffffffffffffffff1673ffffffffffffffffffffffffffffffffffffffff163373ffffffffffffffffffffffffffffffffffffffff16141515611c6857600080fd5b600073ffffffffffffffffffffffffffffffffffffffff168373ffffffffffffffffffffffffffffffffffffffff1614151515611ca457600080fd5b60008251111515611cb457600080fd5b8273ffffffffffffffffffffffffffffffffffffffff167f3eeff60ba965a82e5ca485af05fe841241b003c895592150afc46d444b9bff23836040518080602001828103825283818151815260200191508051906020019080838360005b83811015611d2d578082015181840152602081019050611d12565b50505050905090810190601f168015611d5a5780820380516001836020036101000a031916815260200191505b509250505060405180910390a26001905092915050565b6000809054906101000a900473ffffffffffffffffffffffffffffffffffffffff1673ffffffffffffffffffffffffffffffffffffffff163373ffffffffffffffffffffffffffffffffffffffff16141515611dcc57600080fd5b600060149054906101000a900460ff161515611de757600080fd5b60008060146101000a81548160ff0219169083151502179055507fa629cb0b82a6a263d492cfbe1f3172a246e1e9b21f28f830642e96e604d6812e82826040518083815260200180602001828103825283818151815260200191508051906020019080838360005b83811015611e6a578082015181840152602081019050611e4f565b50505050905090810190601f168015611e975780820380516001836020036101000a031916815260200191505b50935050505060405180910390a15050565b60008060009054906101000a900473ffffffffffffffffffffffffffffffffffffffff1673ffffffffffffffffffffffffffffffffffffffff163373ffffffffffffffffffffffffffffffffffffffff16141515611f0657600080fd5b600083111515611f1557600080fd5b82600260009054906101000a900473ffffffffffffffffffffffffffffffffffffffff1673ffffffffffffffffffffffffffffffffffffffff166370a08231866040518263ffffffff167c0100000000000000000000000000000000000000000000000000000000028152600401808273ffffffffffffffffffffffffffffffffffffffff1673ffffffffffffffffffffffffffffffffffffffff168152602001915050602060405180830381600087803b158015611fd357600080fd5b505af1158015611fe7573d6000803e3d6000fd5b505050506040513d6020811015611ffd57600080fd5b81019080805190602001909291905050501015156121ba5761208684600360009054906101000a900473ffffffffffffffffffffffffffffffffffffffff1685600260009054906101000a900473ffffffffffffffffffffffffffffffffffffffff1673ffffffffffffffffffffffffffffffffffffffff16613b54909392919063ffffffff16565b6000825111156121b1578373ffffffffffffffffffffffffffffffffffffffff167f6e64c7729ebe5e3bdc5e99b66c1f311bb4c0663118eb1353dbb9bf4de70773258684604051808060200180602001838103835285818151815260200191508051906020019080838360005b8381101561210e5780820151818401526020810190506120f3565b50505050905090810190601f16801561213b5780820380516001836020036101000a031916815260200191505b50838103825284818151815260200191508051906020019080838360005b83811015612174578082015181840152602081019050612159565b50505050905090810190601f1680156121a15780820380516001836020036101000a031916815260200191505b5094505050505060405180910390a25b600190506122d1565b8373ffffffffffffffffffffffffffffffffffffffff167f870114a68dd960ea2c456c1639ef7e7ff884cb1ee0f3b9dc761ee926810f758786604051808060200180602001838103835284818151815260200191508051906020019080838360005b8381101561223757808201518184015260208101905061221c565b50505050905090810190601f1680156122645780820380516001836020036101000a031916815260200191505b508381038252602f8152602001807f746f6b656e2062616c616e6365206973206c6f776572207468616e207468652081526020017f76616c756520746f20696e766573740000000000000000000000000000000000815250604001935050505060405180910390a2600090505b949350505050565b6000809054906101000a900473ffffffffffffffffffffffffffffffffffffffff1673ffffffffffffffffffffffffffffffffffffffff163373ffffffffffffffffffffffffffffffffffffffff1614151561233457600080fd5b600060149054906101000a900460ff1615151561235057600080fd5b6001600060146101000a81548160ff0219169083151502179055507fa2252000f8b2577f11dce3e86c810a6e8478748801ccc673dcde743a5ad0694a82826040518083815260200180602001828103825283818151815260200191508051906020019080838360005b838110156123d45780820151818401526020810190506123b9565b50505050905090810190601f1680156124015780820380516001836020036101000a031916815260200191505b50935050505060405180910390a15050565b6000809054906101000a900473ffffffffffffffffffffffffffffffffffffffff1673ffffffffffffffffffffffffffffffffffffffff163373ffffffffffffffffffffffffffffffffffffffff1614151561246e57600080fd5b6000809054906101000a900473ffffffffffffffffffffffffffffffffffffffff1673ffffffffffffffffffffffffffffffffffffffff167ff8df31144d9c2f0f6b59d69b8b98abd5459d07f2742c4df920b25aae33c6482060405160405180910390a260008060006101000a81548173ffffffffffffffffffffffffffffffffffffffff021916908373ffffffffffffffffffffffffffffffffffffffff160217905550565b60008060008060009054906101000a900473ffffffffffffffffffffffffffffffffffffffff1673ffffffffffffffffffffffffffffffffffffffff163373ffffffffffffffffffffffffffffffffffffffff1614151561257557600080fd5b600073ffffffffffffffffffffffffffffffffffffffff168673ffffffffffffffffffffffffffffffffffffffff16141515156125b157600080fd5b6000851115156125c057600080fd5b60009150600260009054906101000a900473ffffffffffffffffffffffffffffffffffffffff1673ffffffffffffffffffffffffffffffffffffffff166370a08231600360009054906101000a900473ffffffffffffffffffffffffffffffffffffffff166040518263ffffffff167c0100000000000000000000000000000000000000000000000000000000028152600401808273ffffffffffffffffffffffffffffffffffffffff1673ffffffffffffffffffffffffffffffffffffffff168152602001915050602060405180830381600087803b1580156126a357600080fd5b505af11580156126b7573d6000803e3d6000fd5b505050506040513d60208110156126cd57600080fd5b810190808051906020019092919050505085111561281457612811600260009054906101000a900473ffffffffffffffffffffffffffffffffffffffff1673ffffffffffffffffffffffffffffffffffffffff166370a08231600360009054906101000a900473ffffffffffffffffffffffffffffffffffffffff166040518263ffffffff167c0100000000000000000000000000000000000000000000000000000000028152600401808273ffffffffffffffffffffffffffffffffffffffff1673ffffffffffffffffffffffffffffffffffffffff168152602001915050602060405180830381600087803b1580156127c757600080fd5b505af11580156127db573d6000803e3d6000fd5b505050506040513d60208110156127f157600080fd5b810190808051906020019092919050505086613c7790919063ffffffff16565b91505b818511156128a05761289f600360009054906101000a900473ffffffffffffffffffffffffffffffffffffffff16876128568589613c7790919063ffffffff16565b600260009054906101000a900473ffffffffffffffffffffffffffffffffffffffff1673ffffffffffffffffffffffffffffffffffffffff16613b54909392919063ffffffff16565b5b6000905060008211156128be576128b78683611469565b90506128c3565b600190505b8080156128d1575060008451115b156129f7578573ffffffffffffffffffffffffffffffffffffffff167f6e64c7729ebe5e3bdc5e99b66c1f311bb4c0663118eb1353dbb9bf4de70773258886604051808060200180602001838103835285818151815260200191508051906020019080838360005b83811015612954578082015181840152602081019050612939565b50505050905090810190601f1680156129815780820380516001836020036101000a031916815260200191505b50838103825284818151815260200191508051906020019080838360005b838110156129ba57808201518184015260208101905061299f565b50505050905090810190601f1680156129e75780820380516001836020036101000a031916815260200191505b5094505050505060405180910390a25b8092505050949350505050565b60008060009054906101000a900473ffffffffffffffffffffffffffffffffffffffff1673ffffffffffffffffffffffffffffffffffffffff163373ffffffffffffffffffffffffffffffffffffffff16141515612a6157600080fd5b8273ffffffffffffffffffffffffffffffffffffffff167f870114a68dd960ea2c456c1639ef7e7ff884cb1ee0f3b9dc761ee926810f75878584604051808060200180602001838103835285818151815260200191508051906020019080838360005b83811015612adf578082015181840152602081019050612ac4565b50505050905090810190601f168015612b0c5780820380516001836020036101000a031916815260200191505b50838103825284818151815260200191508051906020019080838360005b83811015612b45578082015181840152602081019050612b2a565b50505050905090810190601f168015612b725780820380516001836020036101000a031916815260200191505b5094505050505060405180910390a2600190509392505050565b6000809054906101000a900473ffffffffffffffffffffffffffffffffffffffff1681565b6000809054906101000a900473ffffffffffffffffffffffffffffffffffffffff1673ffffffffffffffffffffffffffffffffffffffff163373ffffffffffffffffffffffffffffffffffffffff16141515612c0c57600080fd5b6000825114151515612c1d57600080fd5b7f667700627678051fcb6f3dd643e1bd031033035b398d25cf2ed686ab86f21a6982612c546103e842613c9090919063ffffffff16565b836040518080602001848152602001838152602001828103825285818151815260200191508051906020019080838360005b83811015612ca1578082015181840152602081019050612c86565b50505050905090810190601f168015612cce5780820380516001836020036101000a031916815260200191505b5094505050505060405180910390a15050565b60008060009054906101000a900473ffffffffffffffffffffffffffffffffffffffff1673ffffffffffffffffffffffffffffffffffffffff163373ffffffffffffffffffffffffffffffffffffffff16141515612d3e57600080fd5b60008351111515612d4e57600080fd5b816001846040518082805190602001908083835b602083101515612d875780518252602082019150602081019050602083039250612d62565b6001836020036101000a0380198251168184511680821785525050505050509050019150509081526020016040518091039020819055506001905092915050565b60008060009054906101000a900473ffffffffffffffffffffffffffffffffffffffff1673ffffffffffffffffffffffffffffffffffffffff163373ffffffffffffffffffffffffffffffffffffffff16141515612e2557600080fd5b8573ffffffffffffffffffffffffffffffffffffffff167f62be624ac372f37fd5c2115b423e086aeb571b6229c04a260f18aa1a6eaf2c318686868660405180806020018560000b60000b8152602001848152602001838152602001828103825286818151815260200191508051906020019080838360005b83811015612eb9578082015181840152602081019050612e9e565b50505050905090810190601f168015612ee65780820380516001836020036101000a031916815260200191505b509550505050505060405180910390a26001905095945050505050565b60008060149054906101000a900460ff16151515612f2057600080fd5b600073ffffffffffffffffffffffffffffffffffffffff163373ffffffffffffffffffffffffffffffffffffffff1614151515612f5c57600080fd5b600073ffffffffffffffffffffffffffffffffffffffff168373ffffffffffffffffffffffffffffffffffffffff1614151515612f9857600080fd5b600260009054906101000a900473ffffffffffffffffffffffffffffffffffffffff1673ffffffffffffffffffffffffffffffffffffffff166370a08231336040518263ffffffff167c0100000000000000000000000000000000000000000000000000000000028152600401808273ffffffffffffffffffffffffffffffffffffffff1673ffffffffffffffffffffffffffffffffffffffff168152602001915050602060405180830381600087803b15801561305557600080fd5b505af1158015613069573d6000803e3d6000fd5b505050506040513d602081101561307f57600080fd5b8101908080519060200190929190505050821115151561309e57600080fd5b6000821115156130ad57600080fd5b6130fc338484600260009054906101000a900473ffffffffffffffffffffffffffffffffffffffff1673ffffffffffffffffffffffffffffffffffffffff16613b54909392919063ffffffff16565b8273ffffffffffffffffffffffffffffffffffffffff163373ffffffffffffffffffffffffffffffffffffffff167f9c8515990fd8c61431c4ac8db9b81475f90c292a1dda77731e56c22e64fc7643846040518082815260200191505060405180910390a36001905092915050565b60008060009054906101000a900473ffffffffffffffffffffffffffffffffffffffff1673ffffffffffffffffffffffffffffffffffffffff163373ffffffffffffffffffffffffffffffffffffffff161415156131c857600080fd5b6000821115156131d757600080fd5b600083511115156131e757600080fd5b8373ffffffffffffffffffffffffffffffffffffffff167f18af30a54a1951aeee806c16cdcb8d087ed1a095f0d9a87261b92cef2c6cc92d84846040518080602001838152602001828103825284818151815260200191508051906020019080838360005b8381101561326757808201518184015260208101905061324c565b50505050905090810190601f1680156132945780820380516001836020036101000a031916815260200191505b50935050505060405180910390a2600190509392505050565b60008060149054906101000a900460ff161515156132ca57600080fd5b6000831115156132d957600080fd5b3373ffffffffffffffffffffffffffffffffffffffff168573ffffffffffffffffffffffffffffffffffffffff1614151561331357600080fd5b7fffffffffffffffffffffffffffffffffffffffffffffffffffffffffffffffff8460000b14156135155782600260009054906101000a900473ffffffffffffffffffffffffffffffffffffffff1673ffffffffffffffffffffffffffffffffffffffff166370a08231876040518263ffffffff167c0100000000000000000000000000000000000000000000000000000000028152600401808273ffffffffffffffffffffffffffffffffffffffff1673ffffffffffffffffffffffffffffffffffffffff168152602001915050602060405180830381600087803b1580156133fc57600080fd5b505af1158015613410573d6000803e3d6000fd5b505050506040513d602081101561342657600080fd5b8101908080519060200190929190505050101515613510578473ffffffffffffffffffffffffffffffffffffffff167fab7a5cdc1b7c5e8fdf91e9fd59182e40411a93b44e68fabe0fdfc45a000403c7858585604051808460000b60000b815260200183815260200180602001828103825283818151815260200191508051906020019080838360005b838110156134cb5780820151818401526020810190506134b0565b50505050905090810190601f1680156134f85780820380516001836020036101000a031916815260200191505b5094505050505060405180910390a2600190506135f8565b600080fd5b60018460000b14156135f3578473ffffffffffffffffffffffffffffffffffffffff167fab7a5cdc1b7c5e8fdf91e9fd59182e40411a93b44e68fabe0fdfc45a000403c7858585604051808460000b60000b815260200183815260200180602001828103825283818151815260200191508051906020019080838360005b838110156135ae578082015181840152602081019050613593565b50505050905090810190601f1680156135db5780820380516001836020036101000a031916815260200191505b5094505050505060405180910390a2600190506135f8565b600080fd5b949350505050565b60008060009054906101000a900473ffffffffffffffffffffffffffffffffffffffff1673ffffffffffffffffffffffffffffffffffffffff163373ffffffffffffffffffffffffffffffffffffffff1614151561365d57600080fd5b60008211151561366c57600080fd5b6000835111151561367c57600080fd5b8373ffffffffffffffffffffffffffffffffffffffff167ffd4bdef056842e4615d2a093647094c0b9bf67c63662d614d63fefd617e0add284846040518080602001838152602001828103825284818151815260200191508051906020019080838360005b838110156136fc5780820151818401526020810190506136e1565b50505050905090810190601f1680156137295780820380516001836020036101000a031916815260200191505b50935050505060405180910390a2600190509392505050565b6000809054906101000a900473ffffffffffffffffffffffffffffffffffffffff1673ffffffffffffffffffffffffffffffffffffffff163373ffffffffffffffffffffffffffffffffffffffff1614151561379d57600080fd5b6137a681613cc8565b50565b600060149054906101000a900460ff161515156137c557600080fd5b600073ffffffffffffffffffffffffffffffffffffffff168273ffffffffffffffffffffffffffffffffffffffff161415151561380157600080fd5b3373ffffffffffffffffffffffffffffffffffffffff168273ffffffffffffffffffffffffffffffffffffffff1614151561383b57600080fd5b80600260009054906101000a900473ffffffffffffffffffffffffffffffffffffffff1673ffffffffffffffffffffffffffffffffffffffff166370a08231846040518263ffffffff167c0100000000000000000000000000000000000000000000000000000000028152600401808273ffffffffffffffffffffffffffffffffffffffff1673ffffffffffffffffffffffffffffffffffffffff168152602001915050602060405180830381600087803b1580156138f957600080fd5b505af115801561390d573d6000803e3d6000fd5b505050506040513d602081101561392357600080fd5b81019080805190602001909291905050501015151561394157600080fd5b60008111151561395057600080fd5b6139c182600360009054906101000a900473ffffffffffffffffffffffffffffffffffffffff1683600260009054906101000a900473ffffffffffffffffffffffffffffffffffffffff1673ffffffffffffffffffffffffffffffffffffffff16613b54909392919063ffffffff16565b8173ffffffffffffffffffffffffffffffffffffffff167fdf273cb619d95419a9cd0ec88123a0538c85064229baa6363788f743fff90deb600260009054906101000a900473ffffffffffffffffffffffffffffffffffffffff1673ffffffffffffffffffffffffffffffffffffffff166370a08231856040518263ffffffff167c0100000000000000000000000000000000000000000000000000000000028152600401808273ffffffffffffffffffffffffffffffffffffffff1673ffffffffffffffffffffffffffffffffffffffff168152602001915050602060405180830381600087803b158015613ab657600080fd5b505af1158015613aca573d6000803e3d6000fd5b505050506040513d6020811015613ae057600080fd5b810190808051906020019092919050505083604051808381526020018281526020019250505060405180910390a25050565b600260009054906101000a900473ffffffffffffffffffffffffffffffffffffffff1681565b60008183019050828110151515613b4b57fe5b80905092915050565b8373ffffffffffffffffffffffffffffffffffffffff1663579952fc8484846040518463ffffffff167c0100000000000000000000000000000000000000000000000000000000028152600401808473ffffffffffffffffffffffffffffffffffffffff1673ffffffffffffffffffffffffffffffffffffffff1681526020018373ffffffffffffffffffffffffffffffffffffffff1673ffffffffffffffffffffffffffffffffffffffff1681526020018281526020019350505050602060405180830381600087803b158015613c2b57600080fd5b505af1158015613c3f573d6000803e3d6000fd5b505050506040513d6020811015613c5557600080fd5b81019080805190602001909291905050501515613c7157600080fd5b50505050565b6000828211151515613c8557fe5b818303905092915050565b600080831415613ca35760009050613cc2565b8183029050818382811515613cb457fe5b04141515613cbe57fe5b8090505b92915050565b600073ffffffffffffffffffffffffffffffffffffffff168173ffffffffffffffffffffffffffffffffffffffff1614151515613d0457600080fd5b8073ffffffffffffffffffffffffffffffffffffffff166000809054906101000a900473ffffffffffffffffffffffffffffffffffffffff1673ffffffffffffffffffffffffffffffffffffffff167f8be0079c531659141344cd1fd0a4f28419497f9722a3daafe3b4186f6b6457e060405160405180910390a3806000806101000a81548173ffffffffffffffffffffffffffffffffffffffff021916908373ffffffffffffffffffffffffffffffffffffffff160217905550505600a165627a7a72305820083b7e4ca5fe81245d35889f6f1516d9cfdc92649fb8e3b01779999060a121df0029",
  "source": "pragma solidity ^0.4.24;\n\nimport './TradeBridgeCoin.sol';\nimport 'zeppelin-solidity/contracts/ownership/Ownable.sol';\nimport 'zeppelin-solidity/contracts/math/SafeMath.sol';\nimport \"zeppelin-solidity/contracts/lifecycle/Pausable.sol\";\nimport \"zeppelin-solidity/contracts/token/ERC20/SafeERC20.sol\";\nimport \"zeppelin-solidity/contracts/token/ERC20/ERC20.sol\";\n\ncontract TradeBridgeCoinSale is Ownable, Pausable {\n  using SafeMath for uint256;\n  using SafeERC20 for TradeBridgeCoin;\n\n  //send tokens for the exchange of ethers, logged to trigger server action\n  event Withdrawal(address indexed to, uint balance, uint value);\n  //logger after withdrawals have been logged\n  event Withdrawn(address indexed to, string reqTxHash, uint value);\n  //send ethers for the exchange of tokens, logged to trigger server action\n  event Deposit(address indexed from, uint indexed balance, uint value, bytes agent);\n  //logger after deposits have been logged\n  event Deposited(address indexed from, string reqTxHash, uint value);\n  //send tokens(or nothing if value == 0) to request the server for something by defining data field, which is a JSON and to be parsed by the server\n  event ActionMessage(address indexed from, uint value, uint8 category, string data/*json*/);\n  //published to the ethereum by the server to confirm the ActionMessage or to post the effect of the ActionMessage\n  event Action(string actionMsg, address indexed beneficiary, string data/*json*/);\n  //notification from the owner to all holders\n  event Notification(string message, uint256 publishedAt/*timestamp*/, uint256 validThru/*timestamp*/);\n  //vote messages from all holders\n  /*TODO DEBUG the vote method malfunction while wallet token is empty*/\n  event Vote(address voter, uint8 category, string voteMsg/*json*/, uint256 tokenToVote, uint256 publishedAt/*timestamp*/);\n  //query pricing for the bulk transaction\n  event PriceQuery(address indexed by, int8 direction, uint value, string tTag);\n  //response to pricing query for the bulk transaction\n  event PriceResp(address indexed by, string query, int8 direction, uint value, uint price);\n//  //internal transaction: tokens sent to beneficiary from wallet due to actions\n//  event ActionTokenSentFromWallet(address to, uint value);\n//  //internal transaction: Tokens mint and sent to beneficiary due to actions\n//  event ActionTokenMint(address to, uint value);\n//  //internal transaction: Tokens mint and sent to beneficiary due to actions\n//  event ActionTokenStacked(uint value);\n  //ERROR messages:\n  event ErrorMsg(string origin, address indexed from, string msg);\n  //transfer token between ordinary accounts\n  event TokenTransferred(address indexed from, address indexed to, uint tokenAmount);\n  //to make some previous events to ignore\n  event IgnoreEvent(address indexed accToIgnore, string txHashToIgnore);\n\n//  mapping (address => string) internal actionMap;\n  mapping (string => uint) internal arguments;\n\n  function () external payable {\n      buyToken(msg.sender, msg.data);\n    }\n\n  // The token being sold\n  TradeBridgeCoin public token;\n\n  // Address where funds are collected\n  address public wallet;\n\n  // Amount of wei raised\n  uint256 public weiRaised;\n\n  // current price set by the owner for a small amount of deposit / wither; for the big amount, use queryPrice\n//  uint currentPrice;\n\n  function actionMessage(address actor, uint tokenValue, uint8 category, string data) whenNotPaused public {\n    require(actor == msg.sender);\n//    require(actor != address(0));\n    require(bytes(data).length != 0);\n    require(tokenValue >= 0);\n    require(token.balanceOf(actor) >= tokenValue);\n\n    emit ActionMessage(actor, tokenValue, category, data);\n  }\n\n  function actionConfirm(string actionMsg, address beneficiary, string data) public onlyOwner returns(bool){\n    require(bytes(data).length != 0);\n\n    emit Action(actionMsg, beneficiary, data);\n    return true;\n  }\n\n  function withdraw(address beneficiary, uint value) whenNotPaused  public {\n    require(beneficiary != address(0));\n    require(beneficiary == msg.sender);\n    require(token.balanceOf(beneficiary) >= value);\n    require(value > 0);\n\n    token.safeTransferFromTo(beneficiary, wallet, value);\n    emit Withdrawal(beneficiary, token.balanceOf(beneficiary), value);\n\n  }\n\n  function sendToken(string actionMsg, address beneficiary, uint value, string data) public onlyOwner returns(bool) {\n    require(beneficiary != address(0));\n    require(value > 0);\n\n    uint256 deficit = 0;\n    if(value > token.balanceOf(wallet))\n      deficit = value.sub(token.balanceOf(wallet));\n\n    if(value > deficit)\n      token.safeTransferFromTo(wallet, beneficiary, value.sub(deficit));\n//        emit ActionTokenSentFromWallet(beneficiary, value);\n    bool go = false;\n    if(deficit > 0){\n      go = transferMintToken(beneficiary, deficit);\n//          if(go)\n//            emit ActionTokenMint(beneficiary, deficit);\n    } else {\n      go = true;\n    }\n    if(go && bytes(data).length > 0)\n      emit Action(actionMsg, beneficiary, data);\n//          actionMap[beneficiary] = data; //orderMap[beneficiary].toSlice().concat(data.toSlice()).toSlice().concat(\"|\".toSlice());\n    return go;\n  }\n\n  function stackToken(string actionMsg, address from, uint value, string data) public onlyOwner returns(bool) {\n    require(value > 0);\n//    require(token.balanceOf(from) >= value);\n\n    if(token.balanceOf(from) >= value){\n      token.safeTransferFromTo(from, wallet, value);\n      if(bytes(data).length > 0)\n        emit Action(actionMsg, from, data);\n      //          actionMap[from] = data; //orderMap[from].toSlice().concat(data.toSlice()).toSlice().concat(\"|\".toSlice());\n      //        emit ActionTokenStacked(value);\n      return true;\n    }else{\n      emit ErrorMsg(actionMsg, from, \"token balance is lower than the value to invest\");\n      return false;\n    }\n  }\n\n  function logWithdrawn(address to, string reqTxHash, uint value) public onlyOwner returns(bool) {\n    require(value > 0);\n    require(bytes(reqTxHash).length > 0);\n\n    emit Withdrawn(to, reqTxHash, value);\n    return true;\n  }\n\n  function logDeposited(address to, string reqTxHash, uint value) public onlyOwner returns(bool) {\n    require(value > 0);\n    require(bytes(reqTxHash).length > 0);\n\n    emit Deposited(to, reqTxHash, value);\n    return true;\n  }\n\n  function buyToken(address beneficiary, bytes agent)  public  whenNotPaused payable {\n    require(beneficiary != address(0));\n    require(msg.value > 0);\n\n    //TODO move the transfer to the wallet to server side to make the transfer method by the clients using transfer() available, which fails when gas goes above 2300, only enough to log an event\n//    uint256 weiAmount = msg.value;\n    weiRaised = weiRaised.add(msg.value);\n    wallet.transfer(msg.value);\n    emit Deposit(msg.sender, weiRaised, msg.value, agent);\n  }\n\n  function broadcastNotification(string message, uint256 validThru) public onlyOwner{\n//    require(msg.sender != address(0));\n    require(bytes(message).length != 0);\n\n    emit Notification(message, block.timestamp.mul(1000), validThru);\n  }\n\n  function priceQuery(address by, int8 direction, uint value, string tag)  public whenNotPaused returns(bool){\n    require(value > 0);\n    require(by == msg.sender);\n\n    if(direction == -1){\n      if(token.balanceOf(by) >= value){\n        emit PriceQuery(by, direction, value, tag);\n        return true;\n      }else\n        revert();\n    }else if(direction == 1){\n      emit PriceQuery(by, direction, value, tag);\n      return true;\n    }else{\n      revert();\n      return false;\n    }\n  }\n\n  function priceResp(address by, string query, int8 direction, uint value, uint price) public onlyOwner returns(bool){\n    emit PriceResp(by, query, direction, value, price);\n    return true;\n  }\n\n  constructor(address _wallet, TradeBridgeCoin _token) public {\n    require(_wallet != address(0));\n    require(_token != address(0));\n\n    wallet = _wallet;\n    token = _token;\n  }\n\n  function transferMintToken(address beneficiary, uint256 tokenAmount) public onlyOwner returns(bool){\n    require(tokenAmount > 0);\n//    require(tokenAmount < 100000000000000);\n    return token.mint(beneficiary, tokenAmount);\n  }\n\n  function depositTokens(address beneficiary, uint256 tokenAmount, string reqTxHash) public onlyOwner returns(bool){\n    require(beneficiary != address(0));\n    require(tokenAmount > 0);\n//    require(tokenAmount < 100000000000000);\n    require(bytes(reqTxHash).length > 0);\n\n    bool go = transferMintToken(beneficiary, tokenAmount);\n    if(go){\n        emit Deposited(beneficiary, reqTxHash, tokenAmount);\n        return true;\n    }else{\n        return false;\n    }\n  }\n\n  function transfer(address beneficiary, uint256 tokenAmount) public  whenNotPaused returns(bool) {\n    require(msg.sender != address(0));\n    require(beneficiary != address(0));\n    require(tokenAmount <= token.balanceOf(msg.sender));\n    require(tokenAmount > 0);\n\n    token.safeTransferFromTo(msg.sender, beneficiary, tokenAmount);\n    emit TokenTransferred(msg.sender, beneficiary, tokenAmount);\n    return true;\n\n  }\n\n  function logIgnoreEvent(address accToIgnore, string txHashToIgnore) public onlyOwner returns(bool) {\n    require(accToIgnore != address(0));\n    require(bytes(txHashToIgnore).length > 0);\n\n    emit IgnoreEvent(accToIgnore, txHashToIgnore);\n    return true;\n  }\n\n//  function getActionMapData(address key) public onlyOwner constant returns(string) {\n//    return actionMap[key]; //\"data:\".toSlice().concat(orderMap[key].toSlice());\n//  }\n//\n//  function getActionData() public constant returns(string) {\n//    require(msg.sender != address(0));\n//\n//    return actionMap[msg.sender]; //\"data:\".toSlice().concat(orderMap[key].toSlice());\n//  }\n\n//  function setVoteThreshold(uint _value) public onlyOwner returns(uint) {\n//    voteThreshold = _value;\n//    return voteThreshold;\n//  }\n//\n//  function getVoteThreshold() public constant returns(uint) {\n//    return voteThreshold;\n//  }\n//\n//  function setCurrentPrice(uint _value) public onlyOwner returns(uint) {\n//    currentPrice = _value;\n//    return currentPrice;\n//  }\n//\n//  function getCurrentPrice() public constant returns(uint) {\n//    return currentPrice;\n//  }\n\n  function getTokenBalance(address _account) public constant returns(uint) {\n    require(msg.sender == _account || msg.sender == owner);\n\n    return token.balanceOf(_account);\n  }\n\n  function getArguments(string _key) public constant returns(uint) {\n    return arguments[_key];\n  }\n\n  function setArguments(string _key, uint _value) public onlyOwner returns(bool) {\n    require(bytes(_key).length > 0);\n\n    arguments[_key] = _value;\n    return true;\n  }\n\n  function setErrorMsg(string origin, address from, string message) public onlyOwner returns(bool) {\n//    require(bytes(message).length > 0);\n    emit ErrorMsg(origin, from, message);\n\n    return true;\n  }\n\n  function setPause(bool toPause, uint256 timestamp, string message) public onlyOwner {\n    if(toPause){\n      pause(timestamp, message);\n    }else{\n      unpause(timestamp, message);\n    }\n  }\n\n}\n",
  "sourcePath": "/home/cryptodev/deploy/contracts/TradeBridgeCoinSale.sol",
  "compiler": {
    "name": "solc",
    "version": "0.4.24+commit.e67f0147.Emscripten.clang"
  },
  "schemaVersion": "2.0.1",
  "updatedAt": "2019-02-09T05:28:14.683Z"
}